:100000000C9402010C9424010C9424010C942401FE
:100010000C9424010C9424010C9424010C942401CC
:100020000C9424010C9424010C9424010C942401BC
:100030000C9424010C9424010C9424010C942401AC
:100040000C9424010C9424010C9424010C9424019C
:100050000C9424010C9424010C9424010C9475013B
:100060000C9424010C9424010C9424010C9424017C
:100070000C9424010C9424010C9424010C9424016C
:100080000C9424010C9424010C9424010C9424015C
:100090000C9424010C9424010C9424010C9424014C
:1000A0000C9424010C9424010C9424010C9424013C
:1000B0000C9424010C9424010C9424010C9424012C
:1000C0000C9424010C9424010C9424010C9424011C
:1000D0000C9424010C9424010C9424010C9424010C
:1000E0000C94240100002100240027002A002D0088
:1000F0003000330001010000040107010A01000083
:100100002200250028002B002E00310034000201BF
:100110000000050108010B0100002000230026005B
:1001200029002C002F00320000010000030106010D
:10013000090105050505070508080808020202026D
:100140000A0A080804040404010101010101010173
:100150000303030303030303040707070C0C0C0C3E
:100160000C0C0C0C02020202060606060606060627
:100170000B0B0B0B0B0B0B0B0102102020080810B4
:100180002040102040800201020108040201010207
:1001900004081020408080402010080402018004E0
:1001A000020180402010080402010804020101023B
:1001B0000408102040800102040810204080000044
:1001C000090A02080B0C0D070603040100000000D9
:1001D000000000000000000000000000000000001F
:1001E0000000000000000000000011100F000000DF
:1001F00000000000000000000000000000000000FF
:100200000000000011241FBECFEFD1E2DEBFCDBF42
:1002100000E00CBF12E0A0E0B2E0E0ECF6E000E0AD
:100220000BBF02C007900D92A030B107D9F71BBEDB
:1002300012E0A0E0B2E001C01D92AA30B107E1F7E0
:100240000E9466010C945E030C940000BF92CF9252
:10025000DF92EF92FF920F931F93C82EB62E569502
:1002600047957A0100E010E0DD2411C08C2D61E09B
:100270000E942B03C801B7010E94BD018C2D60E0D4
:100280000E942B03C801B7010E94BD01D394DB1467
:1002900068F31F910F91FF90EF90DF90CF90BF9088
:1002A00008958091000263E04DE451E00E94260130
:1002B00068EE73E080E090E00E94BD0108958DE05B
:1002C0008093000261E00E9478020895CF93DF934B
:1002D0000E9416020E945F01C0E0D0E00E9451011E
:1002E0002097E1F30E940000F9CF1F920F920FB602
:1002F0000F9211242F933F938F939F93AF93BF93AC
:100300008091050290910602A0910702B091080227
:10031000309109020196A11DB11D232F2D5F2D37AC
:1003200020F02D570196A11DB11D20930902809345
:10033000050290930602A0930702B09308028091F1
:10034000010290910202A0910302B0910402019671
:10035000A11DB11D8093010290930202A09303029C
:10036000B0930402BF91AF919F918F913F912F91D4
:100370000F900FBE0F901F9018959B01AC017FB797
:10038000F8948091010290910202A0910302B09131
:10039000040266B5A89B05C06F3F19F00196A11D28
:1003A000B11D7FBFBA2FA92F982F8827860F911DC7
:1003B000A11DB11D62E0880F991FAA1FBB1F6A957E
:1003C000D1F7BC012DC0FFB7F89480910102909144
:1003D0000202A0910302B0910402E6B5A89B05C0F9
:1003E000EF3F19F00196A11DB11DFFBFBA2FA92F34
:1003F000982F88278E0F911DA11DB11DE2E0880F57
:10040000991FAA1FBB1FEA95D1F7861B970B885E21
:100410009340C8F2215030404040504068517C4FDA
:10042000211531054105510571F60895789484B57B
:10043000826084BD84B5816084BD85B5826085BDE0
:1004400085B5816085BDEEE6F0E0808181608083C6
:10045000E1E8F0E0108280818260808380818160A9
:100460008083E0E8F0E0808181608083E1EBF0E070
:10047000808184608083E0EBF0E080818160808314
:10048000E1E9F0E080818260808380818160808307
:10049000E0E9F0E0808181608083E1EAF0E0808142
:1004A00082608083808181608083E0EAF0E08081E7
:1004B00081608083E1E2F1E08081826080838081DD
:1004C00081608083E0E2F1E0808181608083EAE7FF
:1004D000F0E080818460808380818260808380817D
:1004E000816080838081806880831092C10008953C
:1004F000CF93DF93482F50E0CA0188589E4FFC01EC
:1005000034914E5C5E4FFA018491882369F190E04A
:10051000880F991FFC01EC51FF4FA591B491FC018C
:10052000E250FF4FC591D491662351F42FB7F89450
:100530008C91932F909589238C93888189230BC06C
:10054000623061F42FB7F8948C91932F90958923A2
:100550008C938881832B88832FBF06C09FB7F89424
:100560008C91832B8C939FBFDF91CF91089589301D
:1005700009F449C08A30A0F4843051F1853040F448
:10058000823079F1833000F5813009F063C026C0F4
:10059000873079F1883098F5863009F05BC025C046
:1005A0008D3009F442C08E3028F48B30B1F18C309C
:1005B000C0F52DC0803109F442C0813109F445C035
:1005C0008F3009F047C037C0809180008F7703C01B
:1005D000809180008F7D80938000089584B58F770F
:1005E00002C084B58F7D84BD08958091B0008F775F
:1005F00003C08091B0008F7D8093B00008958091FA
:1006000090008F7707C0809190008F7D03C080910C
:100610009000877F8093900008958091A0008F774D
:1006200007C08091A0008F7D03C08091A000877FCC
:100630008093A0000895809120018F7703C080915E
:1006400020018F7D80932001089580912001877F74
:10065000809320010895FF920F931F93F62E482F49
:1006600050E0CA0182549E4FFC012491CA0188586F
:100670009E4FFC0114914E5C5E4FFA0104910023E1
:10068000C9F0222319F0822F0E94B702E02FF0E078
:10069000EE0FFF1FE250FF4FA591B4919FB7F89462
:1006A000FF2021F48C911095812302C08C91812B25
:1006B0008C939FBF1F910F91FF900895F894FFCFE7
:00000001FF
